{
  "_format": "hh-sol-artifact-1",
  "contractName": "safWall",
  "sourceName": "contracts/safWall.sol",
  "abi": [
    {
      "inputs": [
        {
          "internalType": "string",
          "name": "name",
          "type": "string"
        },
        {
          "internalType": "string",
          "name": "symbol",
          "type": "string"
        }
      ],
      "stateMutability": "nonpayable",
      "type": "constructor"
    },
    {
      "anonymous": false,
      "inputs": [
        {
          "indexed": true,
          "internalType": "address",
          "name": "owner",
          "type": "address"
        },
        {
          "indexed": true,
          "internalType": "address",
          "name": "spender",
          "type": "address"
        },
        {
          "indexed": false,
          "internalType": "uint256",
          "name": "value",
          "type": "uint256"
        }
      ],
      "name": "Approval",
      "type": "event"
    },
    {
      "anonymous": false,
      "inputs": [
        {
          "indexed": true,
          "internalType": "address",
          "name": "from",
          "type": "address"
        },
        {
          "indexed": true,
          "internalType": "address",
          "name": "to",
          "type": "address"
        },
        {
          "indexed": false,
          "internalType": "uint256",
          "name": "value",
          "type": "uint256"
        }
      ],
      "name": "Transfer",
      "type": "event"
    },
    {
      "inputs": [
        {
          "internalType": "address",
          "name": "",
          "type": "address"
        }
      ],
      "name": "addressStakeStatus",
      "outputs": [
        {
          "internalType": "bool",
          "name": "",
          "type": "bool"
        }
      ],
      "stateMutability": "view",
      "type": "function"
    },
    {
      "inputs": [
        {
          "internalType": "address",
          "name": "",
          "type": "address"
        }
      ],
      "name": "addressToIndex",
      "outputs": [
        {
          "internalType": "uint256",
          "name": "",
          "type": "uint256"
        }
      ],
      "stateMutability": "view",
      "type": "function"
    },
    {
      "inputs": [],
      "name": "allTokensMinted",
      "outputs": [
        {
          "internalType": "uint256",
          "name": "",
          "type": "uint256"
        }
      ],
      "stateMutability": "view",
      "type": "function"
    },
    {
      "inputs": [
        {
          "internalType": "address",
          "name": "owner",
          "type": "address"
        },
        {
          "internalType": "address",
          "name": "spender",
          "type": "address"
        }
      ],
      "name": "allowance",
      "outputs": [
        {
          "internalType": "uint256",
          "name": "",
          "type": "uint256"
        }
      ],
      "stateMutability": "view",
      "type": "function"
    },
    {
      "inputs": [
        {
          "internalType": "address",
          "name": "spender",
          "type": "address"
        },
        {
          "internalType": "uint256",
          "name": "amount",
          "type": "uint256"
        }
      ],
      "name": "approve",
      "outputs": [
        {
          "internalType": "bool",
          "name": "",
          "type": "bool"
        }
      ],
      "stateMutability": "nonpayable",
      "type": "function"
    },
    {
      "inputs": [
        {
          "internalType": "address",
          "name": "account",
          "type": "address"
        }
      ],
      "name": "balanceOf",
      "outputs": [
        {
          "internalType": "uint256",
          "name": "",
          "type": "uint256"
        }
      ],
      "stateMutability": "view",
      "type": "function"
    },
    {
      "inputs": [
        {
          "internalType": "address",
          "name": "_address",
          "type": "address"
        }
      ],
      "name": "calculateTokenReward",
      "outputs": [
        {
          "internalType": "uint256",
          "name": "",
          "type": "uint256"
        }
      ],
      "stateMutability": "view",
      "type": "function"
    },
    {
      "inputs": [],
      "name": "contractBalance",
      "outputs": [
        {
          "internalType": "uint256",
          "name": "",
          "type": "uint256"
        }
      ],
      "stateMutability": "view",
      "type": "function"
    },
    {
      "inputs": [],
      "name": "decimals",
      "outputs": [
        {
          "internalType": "uint8",
          "name": "",
          "type": "uint8"
        }
      ],
      "stateMutability": "view",
      "type": "function"
    },
    {
      "inputs": [
        {
          "internalType": "address",
          "name": "spender",
          "type": "address"
        },
        {
          "internalType": "uint256",
          "name": "subtractedValue",
          "type": "uint256"
        }
      ],
      "name": "decreaseAllowance",
      "outputs": [
        {
          "internalType": "bool",
          "name": "",
          "type": "bool"
        }
      ],
      "stateMutability": "nonpayable",
      "type": "function"
    },
    {
      "inputs": [],
      "name": "destroyContract",
      "outputs": [],
      "stateMutability": "nonpayable",
      "type": "function"
    },
    {
      "inputs": [
        {
          "internalType": "address",
          "name": "",
          "type": "address"
        }
      ],
      "name": "eligibleAddress",
      "outputs": [
        {
          "internalType": "bool",
          "name": "",
          "type": "bool"
        }
      ],
      "stateMutability": "view",
      "type": "function"
    },
    {
      "inputs": [],
      "name": "getTotalUserStaked",
      "outputs": [
        {
          "internalType": "uint256",
          "name": "",
          "type": "uint256"
        }
      ],
      "stateMutability": "view",
      "type": "function"
    },
    {
      "inputs": [],
      "name": "getTotalUserStakedDetails",
      "outputs": [
        {
          "components": [
            {
              "internalType": "address",
              "name": "user",
              "type": "address"
            },
            {
              "internalType": "uint256",
              "name": "TimeStaked",
              "type": "uint256"
            },
            {
              "internalType": "uint256",
              "name": "TimestakedEnd",
              "type": "uint256"
            },
            {
              "internalType": "uint256",
              "name": "stakedAmount",
              "type": "uint256"
            }
          ],
          "internalType": "struct safWall.stakingDetails[]",
          "name": "",
          "type": "tuple[]"
        }
      ],
      "stateMutability": "view",
      "type": "function"
    },
    {
      "inputs": [],
      "name": "getUserStakedDetails",
      "outputs": [
        {
          "components": [
            {
              "internalType": "address",
              "name": "user",
              "type": "address"
            },
            {
              "internalType": "uint256",
              "name": "TimeStaked",
              "type": "uint256"
            },
            {
              "internalType": "uint256",
              "name": "TimestakedEnd",
              "type": "uint256"
            },
            {
              "internalType": "uint256",
              "name": "stakedAmount",
              "type": "uint256"
            }
          ],
          "internalType": "struct safWall.stakingDetails",
          "name": "",
          "type": "tuple"
        }
      ],
      "stateMutability": "view",
      "type": "function"
    },
    {
      "inputs": [],
      "name": "gettotalEligbles",
      "outputs": [
        {
          "internalType": "uint256",
          "name": "",
          "type": "uint256"
        }
      ],
      "stateMutability": "view",
      "type": "function"
    },
    {
      "inputs": [
        {
          "internalType": "address",
          "name": "spender",
          "type": "address"
        },
        {
          "internalType": "uint256",
          "name": "addedValue",
          "type": "uint256"
        }
      ],
      "name": "increaseAllowance",
      "outputs": [
        {
          "internalType": "bool",
          "name": "",
          "type": "bool"
        }
      ],
      "stateMutability": "nonpayable",
      "type": "function"
    },
    {
      "inputs": [
        {
          "internalType": "address",
          "name": "_address",
          "type": "address"
        }
      ],
      "name": "makeEligible",
      "outputs": [],
      "stateMutability": "nonpayable",
      "type": "function"
    },
    {
      "inputs": [],
      "name": "name",
      "outputs": [
        {
          "internalType": "string",
          "name": "",
          "type": "string"
        }
      ],
      "stateMutability": "view",
      "type": "function"
    },
    {
      "inputs": [],
      "name": "owner",
      "outputs": [
        {
          "internalType": "address",
          "name": "",
          "type": "address"
        }
      ],
      "stateMutability": "view",
      "type": "function"
    },
    {
      "inputs": [
        {
          "internalType": "address",
          "name": "_address",
          "type": "address"
        }
      ],
      "name": "stakedTime",
      "outputs": [
        {
          "internalType": "uint256",
          "name": "",
          "type": "uint256"
        }
      ],
      "stateMutability": "view",
      "type": "function"
    },
    {
      "inputs": [
        {
          "internalType": "address",
          "name": "_address",
          "type": "address"
        }
      ],
      "name": "stakedTimeRemained",
      "outputs": [
        {
          "internalType": "uint256",
          "name": "",
          "type": "uint256"
        }
      ],
      "stateMutability": "view",
      "type": "function"
    },
    {
      "inputs": [
        {
          "internalType": "uint256",
          "name": "",
          "type": "uint256"
        }
      ],
      "name": "stakingAddress",
      "outputs": [
        {
          "internalType": "address",
          "name": "",
          "type": "address"
        }
      ],
      "stateMutability": "view",
      "type": "function"
    },
    {
      "inputs": [
        {
          "internalType": "uint256",
          "name": "time",
          "type": "uint256"
        }
      ],
      "name": "stakingETH",
      "outputs": [],
      "stateMutability": "payable",
      "type": "function"
    },
    {
      "inputs": [],
      "name": "symbol",
      "outputs": [
        {
          "internalType": "string",
          "name": "",
          "type": "string"
        }
      ],
      "stateMutability": "view",
      "type": "function"
    },
    {
      "inputs": [],
      "name": "totalSupply",
      "outputs": [
        {
          "internalType": "uint256",
          "name": "",
          "type": "uint256"
        }
      ],
      "stateMutability": "view",
      "type": "function"
    },
    {
      "inputs": [
        {
          "internalType": "address",
          "name": "to",
          "type": "address"
        },
        {
          "internalType": "uint256",
          "name": "amount",
          "type": "uint256"
        }
      ],
      "name": "transfer",
      "outputs": [
        {
          "internalType": "bool",
          "name": "",
          "type": "bool"
        }
      ],
      "stateMutability": "nonpayable",
      "type": "function"
    },
    {
      "inputs": [
        {
          "internalType": "address",
          "name": "from",
          "type": "address"
        },
        {
          "internalType": "address",
          "name": "to",
          "type": "address"
        },
        {
          "internalType": "uint256",
          "name": "amount",
          "type": "uint256"
        }
      ],
      "name": "transferFrom",
      "outputs": [
        {
          "internalType": "bool",
          "name": "",
          "type": "bool"
        }
      ],
      "stateMutability": "nonpayable",
      "type": "function"
    },
    {
      "inputs": [],
      "name": "unstakeETH",
      "outputs": [
        {
          "internalType": "uint256",
          "name": "",
          "type": "uint256"
        }
      ],
      "stateMutability": "payable",
      "type": "function"
    },
    {
      "stateMutability": "payable",
      "type": "receive"
    }
  ],
  "bytecode": "0x6080604052600a600c55670de0b6b3a7640000600d5562093a80600e553480156200002957600080fd5b5060405162003b9338038062003b9383398181016040528101906200004f919062000534565b8181816003908162000062919062000804565b50806004908162000074919062000804565b50505033600560006101000a81548173ffffffffffffffffffffffffffffffffffffffff021916908373ffffffffffffffffffffffffffffffffffffffff160217905550600a600560009054906101000a900473ffffffffffffffffffffffffffffffffffffffff169080600181540180825580915050600190039060005260206000200160009091909190916101000a81548173ffffffffffffffffffffffffffffffffffffffff021916908373ffffffffffffffffffffffffffffffffffffffff1602179055506200017462989680600560009054906101000a900473ffffffffffffffffffffffffffffffffffffffff166200017c60201b60201c565b505062000a78565b600560009054906101000a900473ffffffffffffffffffffffffffffffffffffffff1673ffffffffffffffffffffffffffffffffffffffff163373ffffffffffffffffffffffffffffffffffffffff16146200020f576040517f08c379a000000000000000000000000000000000000000000000000000000000815260040162000206906200094c565b60405180910390fd5b6200022681836200022a60201b620017cc1760201c565b5050565b600073ffffffffffffffffffffffffffffffffffffffff168273ffffffffffffffffffffffffffffffffffffffff16036200029c576040517f08c379a00000000000000000000000000000000000000000000000000000000081526004016200029390620009be565b60405180910390fd5b620002b0600083836200039760201b60201c565b8060026000828254620002c4919062000a0f565b92505081905550806000808473ffffffffffffffffffffffffffffffffffffffff1673ffffffffffffffffffffffffffffffffffffffff168152602001908152602001600020600082825401925050819055508173ffffffffffffffffffffffffffffffffffffffff16600073ffffffffffffffffffffffffffffffffffffffff167fddf252ad1be2c89b69c2b068fc378daa952ba7f163c4a11628f55a4df523b3ef8360405162000377919062000a5b565b60405180910390a362000393600083836200039c60201b60201c565b5050565b505050565b505050565b6000604051905090565b600080fd5b600080fd5b600080fd5b600080fd5b6000601f19601f8301169050919050565b7f4e487b7100000000000000000000000000000000000000000000000000000000600052604160045260246000fd5b6200040a82620003bf565b810181811067ffffffffffffffff821117156200042c576200042b620003d0565b5b80604052505050565b600062000441620003a1565b90506200044f8282620003ff565b919050565b600067ffffffffffffffff821115620004725762000471620003d0565b5b6200047d82620003bf565b9050602081019050919050565b60005b83811015620004aa5780820151818401526020810190506200048d565b60008484015250505050565b6000620004cd620004c78462000454565b62000435565b905082815260208101848484011115620004ec57620004eb620003ba565b5b620004f98482856200048a565b509392505050565b600082601f830112620005195762000518620003b5565b5b81516200052b848260208601620004b6565b91505092915050565b600080604083850312156200054e576200054d620003ab565b5b600083015167ffffffffffffffff8111156200056f576200056e620003b0565b5b6200057d8582860162000501565b925050602083015167ffffffffffffffff811115620005a157620005a0620003b0565b5b620005af8582860162000501565b9150509250929050565b600081519050919050565b7f4e487b7100000000000000000000000000000000000000000000000000000000600052602260045260246000fd5b600060028204905060018216806200060c57607f821691505b602082108103620006225762000621620005c4565b5b50919050565b60008190508160005260206000209050919050565b60006020601f8301049050919050565b600082821b905092915050565b6000600883026200068c7fffffffffffffffffffffffffffffffffffffffffffffffffffffffffffffffff826200064d565b6200069886836200064d565b95508019841693508086168417925050509392505050565b6000819050919050565b6000819050919050565b6000620006e5620006df620006d984620006b0565b620006ba565b620006b0565b9050919050565b6000819050919050565b6200070183620006c4565b620007196200071082620006ec565b8484546200065a565b825550505050565b600090565b6200073062000721565b6200073d818484620006f6565b505050565b5b8181101562000765576200075960008262000726565b60018101905062000743565b5050565b601f821115620007b4576200077e8162000628565b62000789846200063d565b8101602085101562000799578190505b620007b1620007a8856200063d565b83018262000742565b50505b505050565b600082821c905092915050565b6000620007d960001984600802620007b9565b1980831691505092915050565b6000620007f48383620007c6565b9150826002028217905092915050565b6200080f82620005b9565b67ffffffffffffffff8111156200082b576200082a620003d0565b5b620008378254620005f3565b6200084482828562000769565b600060209050601f8311600181146200087c576000841562000867578287015190505b620008738582620007e6565b865550620008e3565b601f1984166200088c8662000628565b60005b82811015620008b6578489015182556001820191506020850194506020810190506200088f565b86831015620008d65784890151620008d2601f891682620007c6565b8355505b6001600288020188555050505b505050505050565b600082825260208201905092915050565b7f6f6e6c79206f776e657220697320616c6c6f7765640000000000000000000000600082015250565b600062000934601583620008eb565b91506200094182620008fc565b602082019050919050565b60006020820190508181036000830152620009678162000925565b9050919050565b7f45524332303a206d696e7420746f20746865207a65726f206164647265737300600082015250565b6000620009a6601f83620008eb565b9150620009b3826200096e565b602082019050919050565b60006020820190508181036000830152620009d98162000997565b9050919050565b7f4e487b7100000000000000000000000000000000000000000000000000000000600052601160045260246000fd5b600062000a1c82620006b0565b915062000a2983620006b0565b925082820190508082111562000a445762000a43620009e0565b5b92915050565b62000a5581620006b0565b82525050565b600060208201905062000a72600083018462000a4a565b92915050565b61310b8062000a886000396000f3fe6080604052600436106101c65760003560e01c806386756383116100f7578063a857705911610095578063dd62ed3e11610064578063dd62ed3e14610699578063de8da614146106d6578063f11b54a614610713578063f667e0aa1461073e576101cd565b8063a8577059146105d6578063a9059cbb146105f4578063b41b071914610631578063cec935331461065c576101cd565b80638da5cb5b116100d15780638da5cb5b1461051857806395d89b4114610543578063961b294a1461056e578063a457c2d714610599576101cd565b806386756383146104875780638a73f0b2146104b05780638b7afe2e146104ed576101cd565b806323b872dd11610164578063395093511161013e57806339509351146103a557806351c86783146103e257806370a082311461041f578063832bc8b01461045c576101cd565b806323b872dd1461030057806328665a651461033d578063313ce5671461037a576101cd565b8063092a5cce116101a0578063092a5cce14610265578063095ea7b31461027c5780630e4f2cdb146102b957806318160ddd146102d5576101cd565b806306709555146101d257806306fdde031461020f578063078f34df1461023a576101cd565b366101cd57005b600080fd5b3480156101de57600080fd5b506101f960048036038101906101f49190612290565b61077b565b60405161020691906122d6565b60405180910390f35b34801561021b57600080fd5b50610224610889565b6040516102319190612381565b60405180910390f35b34801561024657600080fd5b5061024f61091b565b60405161025c91906124c5565b60405180910390f35b34801561027157600080fd5b5061027a6109ee565b005b34801561028857600080fd5b506102a3600480360381019061029e9190612513565b610ab9565b6040516102b0919061256e565b60405180910390f35b6102d360048036038101906102ce9190612589565b610adc565b005b3480156102e157600080fd5b506102ea610d86565b6040516102f791906122d6565b60405180910390f35b34801561030c57600080fd5b50610327600480360381019061032291906125b6565b610d90565b604051610334919061256e565b60405180910390f35b34801561034957600080fd5b50610364600480360381019061035f9190612290565b610dbf565b60405161037191906122d6565b60405180910390f35b34801561038657600080fd5b5061038f610de8565b60405161039c9190612625565b60405180910390f35b3480156103b157600080fd5b506103cc60048036038101906103c79190612513565b610df1565b6040516103d9919061256e565b60405180910390f35b3480156103ee57600080fd5b5061040960048036038101906104049190612290565b610e28565b604051610416919061256e565b60405180910390f35b34801561042b57600080fd5b5061044660048036038101906104419190612290565b610e48565b60405161045391906122d6565b60405180910390f35b34801561046857600080fd5b50610471610e90565b60405161047e91906122d6565b60405180910390f35b34801561049357600080fd5b506104ae60048036038101906104a99190612290565b610e9d565b005b3480156104bc57600080fd5b506104d760048036038101906104d29190612589565b6110be565b6040516104e4919061264f565b60405180910390f35b3480156104f957600080fd5b506105026110fd565b60405161050f91906122d6565b60405180910390f35b34801561052457600080fd5b5061052d611105565b60405161053a919061264f565b60405180910390f35b34801561054f57600080fd5b5061055861112b565b6040516105659190612381565b60405180910390f35b34801561057a57600080fd5b506105836111bd565b60405161059091906122d6565b60405180910390f35b3480156105a557600080fd5b506105c060048036038101906105bb9190612513565b6111cc565b6040516105cd919061256e565b60405180910390f35b6105de611243565b6040516105eb91906122d6565b60405180910390f35b34801561060057600080fd5b5061061b60048036038101906106169190612513565b6113bc565b604051610628919061256e565b60405180910390f35b34801561063d57600080fd5b506106466113df565b60405161065391906126bf565b60405180910390f35b34801561066857600080fd5b50610683600480360381019061067e9190612290565b61155e565b604051610690919061256e565b60405180910390f35b3480156106a557600080fd5b506106c060048036038101906106bb91906126da565b61157e565b6040516106cd91906122d6565b60405180910390f35b3480156106e257600080fd5b506106fd60048036038101906106f89190612290565b611605565b60405161070a91906122d6565b60405180910390f35b34801561071f57600080fd5b506107286117a7565b60405161073591906122d6565b60405180910390f35b34801561074a57600080fd5b5061076560048036038101906107609190612290565b6117b4565b60405161077291906122d6565b60405180910390f35b600080600960008473ffffffffffffffffffffffffffffffffffffffff1673ffffffffffffffffffffffffffffffffffffffff1681526020019081526020016000205490506000600b82815481106107d6576107d561271a565b5b906000526020600020906004020160010154600b83815481106107fc576107fb61271a565b5b9060005260206000209060040201600201546108189190612778565b905061086e600b83815481106108315761083061271a565b5b906000526020600020906004020160020154600b84815481106108575761085661271a565b5b906000526020600020906004020160010154611922565b620151808161087d91906127db565b90508092505050919050565b6060600380546108989061283b565b80601f01602080910402602001604051908101604052809291908181526020018280546108c49061283b565b80156109115780601f106108e657610100808354040283529160200191610911565b820191906000526020600020905b8154815290600101906020018083116108f457829003601f168201915b5050505050905090565b6060600b805480602002602001604051908101604052809291908181526020016000905b828210156109e557838290600052602060002090600402016040518060800160405290816000820160009054906101000a900473ffffffffffffffffffffffffffffffffffffffff1673ffffffffffffffffffffffffffffffffffffffff1673ffffffffffffffffffffffffffffffffffffffff16815260200160018201548152602001600282015481526020016003820154815250508152602001906001019061093f565b50505050905090565b600560009054906101000a900473ffffffffffffffffffffffffffffffffffffffff1673ffffffffffffffffffffffffffffffffffffffff163373ffffffffffffffffffffffffffffffffffffffff1614610a7e576040517f08c379a0000000000000000000000000000000000000000000000000000000008152600401610a75906128b8565b60405180910390fd5b600560009054906101000a900473ffffffffffffffffffffffffffffffffffffffff1673ffffffffffffffffffffffffffffffffffffffff16ff5b600080610ac46119be565b9050610ad18185856119c6565b600191505092915050565b600081905060001515600860003373ffffffffffffffffffffffffffffffffffffffff1673ffffffffffffffffffffffffffffffffffffffff16815260200190815260200160002060009054906101000a900460ff16151514610b74576040517f08c379a0000000000000000000000000000000000000000000000000000000008152600401610b6b90612924565b60405180910390fd5b670de0b6b3a7640000341015610bbf576040517f08c379a0000000000000000000000000000000000000000000000000000000008152600401610bb690612990565b60405180910390fd5b62093a80811015610c05576040517f08c379a0000000000000000000000000000000000000000000000000000000008152600401610bfc906129fc565b60405180910390fd5b6001600860003373ffffffffffffffffffffffffffffffffffffffff1673ffffffffffffffffffffffffffffffffffffffff16815260200190815260200160002060006101000a81548160ff021916908315150217905550600060405180608001604052803373ffffffffffffffffffffffffffffffffffffffff1681526020014281526020018342610c989190612a1c565b8152602001348152509050610cab6117a7565b600960003373ffffffffffffffffffffffffffffffffffffffff1673ffffffffffffffffffffffffffffffffffffffff16815260200190815260200160002081905550600b81908060018154018082558091505060019003906000526020600020906004020160009091909190915060008201518160000160006101000a81548173ffffffffffffffffffffffffffffffffffffffff021916908373ffffffffffffffffffffffffffffffffffffffff1602179055506020820151816001015560408201518160020155606082015181600301555050505050565b6000600254905090565b600080610d9b6119be565b9050610da8858285611b8f565b610db3858585611c1b565b60019150509392505050565b600080610dcb8361077b565b90506000600582610ddc9190612a50565b90508092505050919050565b60006012905090565b600080610dfc6119be565b9050610e1d818585610e0e858961157e565b610e189190612a1c565b6119c6565b600191505092915050565b60086020528060005260406000206000915054906101000a900460ff1681565b60008060008373ffffffffffffffffffffffffffffffffffffffff1673ffffffffffffffffffffffffffffffffffffffff168152602001908152602001600020549050919050565b6000600a80549050905090565b600560009054906101000a900473ffffffffffffffffffffffffffffffffffffffff1673ffffffffffffffffffffffffffffffffffffffff163373ffffffffffffffffffffffffffffffffffffffff1614610f2d576040517f08c379a0000000000000000000000000000000000000000000000000000000008152600401610f24906128b8565b60405180910390fd5b60001515600660008373ffffffffffffffffffffffffffffffffffffffff1673ffffffffffffffffffffffffffffffffffffffff16815260200190815260200160002060009054906101000a900460ff16151514610fc0576040517f08c379a0000000000000000000000000000000000000000000000000000000008152600401610fb790612b04565b60405180910390fd5b6001600660008373ffffffffffffffffffffffffffffffffffffffff1673ffffffffffffffffffffffffffffffffffffffff16815260200190815260200160002060006101000a81548160ff021916908315150217905550600760008273ffffffffffffffffffffffffffffffffffffffff1673ffffffffffffffffffffffffffffffffffffffff16815260200190815260200160002050600a819080600181540180825580915050600190039060005260206000200160009091909190916101000a81548173ffffffffffffffffffffffffffffffffffffffff021916908373ffffffffffffffffffffffffffffffffffffffff16021790555050565b600a81815481106110ce57600080fd5b906000526020600020016000915054906101000a900473ffffffffffffffffffffffffffffffffffffffff1681565b600047905090565b600560009054906101000a900473ffffffffffffffffffffffffffffffffffffffff1681565b60606004805461113a9061283b565b80601f01602080910402602001604051908101604052809291908181526020018280546111669061283b565b80156111b35780601f10611188576101008083540402835291602001916111b3565b820191906000526020600020905b81548152906001019060200180831161119657829003601f168201915b5050505050905090565b60006111c7610d86565b905090565b6000806111d76119be565b905060006111e5828661157e565b90508381101561122a576040517f08c379a000000000000000000000000000000000000000000000000000000000815260040161122190612b96565b60405180910390fd5b61123782868684036119c6565b60019250505092915050565b600080600960003373ffffffffffffffffffffffffffffffffffffffff1673ffffffffffffffffffffffffffffffffffffffff168152602001908152602001600020549050600b818154811061129c5761129b61271a565b5b9060005260206000209060040201600201544210156112f0576040517f08c379a00000000000000000000000000000000000000000000000000000000081526004016112e790612c02565b60405180910390fd5b60006112fa6117a7565b90506000600b83815481106113125761131161271a565b5b9060005260206000209060040201600301549050600061133133610dbf565b905061133e338585611e91565b3373ffffffffffffffffffffffffffffffffffffffff166108fc839081150290604051600060405180830381858888f19350505050158015611384573d6000803e3d6000fd5b506113b2600560009054906101000a900473ffffffffffffffffffffffffffffffffffffffff163383611c1b565b8094505050505090565b6000806113c76119be565b90506113d4818585611c1b565b600191505092915050565b6113e76121ef565b600860003373ffffffffffffffffffffffffffffffffffffffff1673ffffffffffffffffffffffffffffffffffffffff16815260200190815260200160002060009054906101000a900460ff16611473576040517f08c379a000000000000000000000000000000000000000000000000000000000815260040161146a90612c6e565b60405180910390fd5b6000600960003373ffffffffffffffffffffffffffffffffffffffff1673ffffffffffffffffffffffffffffffffffffffff168152602001908152602001600020549050600b81815481106114cb576114ca61271a565b5b90600052602060002090600402016040518060800160405290816000820160009054906101000a900473ffffffffffffffffffffffffffffffffffffffff1673ffffffffffffffffffffffffffffffffffffffff1673ffffffffffffffffffffffffffffffffffffffff168152602001600182015481526020016002820154815260200160038201548152505091505090565b60066020528060005260406000206000915054906101000a900460ff1681565b6000600160008473ffffffffffffffffffffffffffffffffffffffff1673ffffffffffffffffffffffffffffffffffffffff16815260200190815260200160002060008373ffffffffffffffffffffffffffffffffffffffff1673ffffffffffffffffffffffffffffffffffffffff16815260200190815260200160002054905092915050565b600060011515600860008473ffffffffffffffffffffffffffffffffffffffff1673ffffffffffffffffffffffffffffffffffffffff16815260200190815260200160002060009054906101000a900460ff1615151461169a576040517f08c379a000000000000000000000000000000000000000000000000000000000815260040161169190612cda565b60405180910390fd5b6000600960008473ffffffffffffffffffffffffffffffffffffffff1673ffffffffffffffffffffffffffffffffffffffff1681526020019081526020016000205490506000600b82815481106116f4576116f361271a565b5b906000526020600020906004020160010154600b838154811061171a5761171961271a565b5b9060005260206000209060040201600201546117369190612778565b905061178c600b838154811061174f5761174e61271a565b5b906000526020600020906004020160020154600b84815481106117755761177461271a565b5b906000526020600020906004020160010154611922565b620151808161179b91906127db565b90508092505050919050565b6000600b80549050905090565b60076020528060005260406000206000915090505481565b600073ffffffffffffffffffffffffffffffffffffffff168273ffffffffffffffffffffffffffffffffffffffff160361183b576040517f08c379a000000000000000000000000000000000000000000000000000000000815260040161183290612d46565b60405180910390fd5b611847600083836121bc565b80600260008282546118599190612a1c565b92505081905550806000808473ffffffffffffffffffffffffffffffffffffffff1673ffffffffffffffffffffffffffffffffffffffff168152602001908152602001600020600082825401925050819055508173ffffffffffffffffffffffffffffffffffffffff16600073ffffffffffffffffffffffffffffffffffffffff167fddf252ad1be2c89b69c2b068fc378daa952ba7f163c4a11628f55a4df523b3ef8360405161190a91906122d6565b60405180910390a361191e600083836121c1565b5050565b6119ba8282604051602401611938929190612d66565b6040516020818303038152906040527ff666715a000000000000000000000000000000000000000000000000000000007bffffffffffffffffffffffffffffffffffffffffffffffffffffffff19166020820180517bffffffffffffffffffffffffffffffffffffffffffffffffffffffff83818316178352505050506121c6565b5050565b600033905090565b600073ffffffffffffffffffffffffffffffffffffffff168373ffffffffffffffffffffffffffffffffffffffff1603611a35576040517f08c379a0000000000000000000000000000000000000000000000000000000008152600401611a2c90612e01565b60405180910390fd5b600073ffffffffffffffffffffffffffffffffffffffff168273ffffffffffffffffffffffffffffffffffffffff1603611aa4576040517f08c379a0000000000000000000000000000000000000000000000000000000008152600401611a9b90612e93565b60405180910390fd5b80600160008573ffffffffffffffffffffffffffffffffffffffff1673ffffffffffffffffffffffffffffffffffffffff16815260200190815260200160002060008473ffffffffffffffffffffffffffffffffffffffff1673ffffffffffffffffffffffffffffffffffffffff168152602001908152602001600020819055508173ffffffffffffffffffffffffffffffffffffffff168373ffffffffffffffffffffffffffffffffffffffff167f8c5be1e5ebec7d5bd14f71427d1e84f3dd0314c0f7b2291e5b200ac8c7c3b92583604051611b8291906122d6565b60405180910390a3505050565b6000611b9b848461157e565b90507fffffffffffffffffffffffffffffffffffffffffffffffffffffffffffffffff8114611c155781811015611c07576040517f08c379a0000000000000000000000000000000000000000000000000000000008152600401611bfe90612eff565b60405180910390fd5b611c1484848484036119c6565b5b50505050565b600073ffffffffffffffffffffffffffffffffffffffff168373ffffffffffffffffffffffffffffffffffffffff1603611c8a576040517f08c379a0000000000000000000000000000000000000000000000000000000008152600401611c8190612f91565b60405180910390fd5b600073ffffffffffffffffffffffffffffffffffffffff168273ffffffffffffffffffffffffffffffffffffffff1603611cf9576040517f08c379a0000000000000000000000000000000000000000000000000000000008152600401611cf090613023565b60405180910390fd5b611d048383836121bc565b60008060008573ffffffffffffffffffffffffffffffffffffffff1673ffffffffffffffffffffffffffffffffffffffff16815260200190815260200160002054905081811015611d8a576040517f08c379a0000000000000000000000000000000000000000000000000000000008152600401611d81906130b5565b60405180910390fd5b8181036000808673ffffffffffffffffffffffffffffffffffffffff1673ffffffffffffffffffffffffffffffffffffffff16815260200190815260200160002081905550816000808573ffffffffffffffffffffffffffffffffffffffff1673ffffffffffffffffffffffffffffffffffffffff168152602001908152602001600020600082825401925050819055508273ffffffffffffffffffffffffffffffffffffffff168473ffffffffffffffffffffffffffffffffffffffff167fddf252ad1be2c89b69c2b068fc378daa952ba7f163c4a11628f55a4df523b3ef84604051611e7891906122d6565b60405180910390a3611e8b8484846121c1565b50505050565b600181611e9e9190612778565b8203611fa8576000600860008573ffffffffffffffffffffffffffffffffffffffff1673ffffffffffffffffffffffffffffffffffffffff16815260200190815260200160002060006101000a81548160ff021916908315150217905550600960008473ffffffffffffffffffffffffffffffffffffffff1673ffffffffffffffffffffffffffffffffffffffff16815260200190815260200160002060009055600b8281548110611f5357611f5261271a565b5b9060005260206000209060040201600080820160006101000a81549073ffffffffffffffffffffffffffffffffffffffff021916905560018201600090556002820160009055600382016000905550506121b7565b6000600860008573ffffffffffffffffffffffffffffffffffffffff1673ffffffffffffffffffffffffffffffffffffffff16815260200190815260200160002060006101000a81548160ff021916908315150217905550600b60018261200f9190612778565b815481106120205761201f61271a565b5b9060005260206000209060040201600b83815481106120425761204161271a565b5b90600052602060002090600402016000820160009054906101000a900473ffffffffffffffffffffffffffffffffffffffff168160000160006101000a81548173ffffffffffffffffffffffffffffffffffffffff021916908373ffffffffffffffffffffffffffffffffffffffff160217905550600182015481600101556002820154816002015560038201548160030155905050600960008473ffffffffffffffffffffffffffffffffffffffff1673ffffffffffffffffffffffffffffffffffffffff168152602001908152602001600020600090556000600b60018361212c9190612778565b8154811061213d5761213c61271a565b5b906000526020600020906004020160000160009054906101000a900473ffffffffffffffffffffffffffffffffffffffff16905082600960008373ffffffffffffffffffffffffffffffffffffffff1673ffffffffffffffffffffffffffffffffffffffff16815260200190815260200160002081905550505b505050565b505050565b505050565b60008151905060006a636f6e736f6c652e6c6f679050602083016000808483855afa5050505050565b6040518060800160405280600073ffffffffffffffffffffffffffffffffffffffff1681526020016000815260200160008152602001600081525090565b600080fd5b600073ffffffffffffffffffffffffffffffffffffffff82169050919050565b600061225d82612232565b9050919050565b61226d81612252565b811461227857600080fd5b50565b60008135905061228a81612264565b92915050565b6000602082840312156122a6576122a561222d565b5b60006122b48482850161227b565b91505092915050565b6000819050919050565b6122d0816122bd565b82525050565b60006020820190506122eb60008301846122c7565b92915050565b600081519050919050565b600082825260208201905092915050565b60005b8381101561232b578082015181840152602081019050612310565b60008484015250505050565b6000601f19601f8301169050919050565b6000612353826122f1565b61235d81856122fc565b935061236d81856020860161230d565b61237681612337565b840191505092915050565b6000602082019050818103600083015261239b8184612348565b905092915050565b600081519050919050565b600082825260208201905092915050565b6000819050602082019050919050565b6123d881612252565b82525050565b6123e7816122bd565b82525050565b60808201600082015161240360008501826123cf565b50602082015161241660208501826123de565b50604082015161242960408501826123de565b50606082015161243c60608501826123de565b50505050565b600061244e83836123ed565b60808301905092915050565b6000602082019050919050565b6000612472826123a3565b61247c81856123ae565b9350612487836123bf565b8060005b838110156124b857815161249f8882612442565b97506124aa8361245a565b92505060018101905061248b565b5085935050505092915050565b600060208201905081810360008301526124df8184612467565b905092915050565b6124f0816122bd565b81146124fb57600080fd5b50565b60008135905061250d816124e7565b92915050565b6000806040838503121561252a5761252961222d565b5b60006125388582860161227b565b9250506020612549858286016124fe565b9150509250929050565b60008115159050919050565b61256881612553565b82525050565b6000602082019050612583600083018461255f565b92915050565b60006020828403121561259f5761259e61222d565b5b60006125ad848285016124fe565b91505092915050565b6000806000606084860312156125cf576125ce61222d565b5b60006125dd8682870161227b565b93505060206125ee8682870161227b565b92505060406125ff868287016124fe565b9150509250925092565b600060ff82169050919050565b61261f81612609565b82525050565b600060208201905061263a6000830184612616565b92915050565b61264981612252565b82525050565b60006020820190506126646000830184612640565b92915050565b60808201600082015161268060008501826123cf565b50602082015161269360208501826123de565b5060408201516126a660408501826123de565b5060608201516126b960608501826123de565b50505050565b60006080820190506126d4600083018461266a565b92915050565b600080604083850312156126f1576126f061222d565b5b60006126ff8582860161227b565b92505060206127108582860161227b565b9150509250929050565b7f4e487b7100000000000000000000000000000000000000000000000000000000600052603260045260246000fd5b7f4e487b7100000000000000000000000000000000000000000000000000000000600052601160045260246000fd5b6000612783826122bd565b915061278e836122bd565b92508282039050818111156127a6576127a5612749565b5b92915050565b7f4e487b7100000000000000000000000000000000000000000000000000000000600052601260045260246000fd5b60006127e6826122bd565b91506127f1836122bd565b925082612801576128006127ac565b5b828204905092915050565b7f4e487b7100000000000000000000000000000000000000000000000000000000600052602260045260246000fd5b6000600282049050600182168061285357607f821691505b6020821081036128665761286561280c565b5b50919050565b7f6f6e6c79206f776e657220697320616c6c6f7765640000000000000000000000600082015250565b60006128a26015836122fc565b91506128ad8261286c565b602082019050919050565b600060208201905081810360008301526128d181612895565b9050919050565b7f796f757220617265207374696c6c205374616b696e6700000000000000000000600082015250565b600061290e6016836122fc565b9150612919826128d8565b602082019050919050565b6000602082019050818103600083015261293d81612901565b9050919050565b7f6e6f742073756666696369656e742066756e6400000000000000000000000000600082015250565b600061297a6013836122fc565b915061298582612944565b602082019050919050565b600060208201905081810360008301526129a98161296d565b9050919050565b7f7374616b696e6720706572696f642020697320746f6f2073686f727400000000600082015250565b60006129e6601c836122fc565b91506129f1826129b0565b602082019050919050565b60006020820190508181036000830152612a15816129d9565b9050919050565b6000612a27826122bd565b9150612a32836122bd565b9250828201905080821115612a4a57612a49612749565b5b92915050565b6000612a5b826122bd565b9150612a66836122bd565b9250828202612a74816122bd565b91508282048414831517612a8b57612a8a612749565b5b5092915050565b7f796f757220656c696769626c65206e6f206e65656420666f722070726f63656460008201527f7572650000000000000000000000000000000000000000000000000000000000602082015250565b6000612aee6023836122fc565b9150612af982612a92565b604082019050919050565b60006020820190508181036000830152612b1d81612ae1565b9050919050565b7f45524332303a2064656372656173656420616c6c6f77616e63652062656c6f7760008201527f207a65726f000000000000000000000000000000000000000000000000000000602082015250565b6000612b806025836122fc565b9150612b8b82612b24565b604082019050919050565b60006020820190508181036000830152612baf81612b73565b9050919050565b7f7374616b696e6720706572696f64206973206e6f742066696e69736865640000600082015250565b6000612bec601e836122fc565b9150612bf782612bb6565b602082019050919050565b60006020820190508181036000830152612c1b81612bdf565b9050919050565b7f6e6f207374616b696e6720666f756e6400000000000000000000000000000000600082015250565b6000612c586010836122fc565b9150612c6382612c22565b602082019050919050565b60006020820190508181036000830152612c8781612c4b565b9050919050565b7f6e6f2066756e6473207374616b65640000000000000000000000000000000000600082015250565b6000612cc4600f836122fc565b9150612ccf82612c8e565b602082019050919050565b60006020820190508181036000830152612cf381612cb7565b9050919050565b7f45524332303a206d696e7420746f20746865207a65726f206164647265737300600082015250565b6000612d30601f836122fc565b9150612d3b82612cfa565b602082019050919050565b60006020820190508181036000830152612d5f81612d23565b9050919050565b6000604082019050612d7b60008301856122c7565b612d8860208301846122c7565b9392505050565b7f45524332303a20617070726f76652066726f6d20746865207a65726f2061646460008201527f7265737300000000000000000000000000000000000000000000000000000000602082015250565b6000612deb6024836122fc565b9150612df682612d8f565b604082019050919050565b60006020820190508181036000830152612e1a81612dde565b9050919050565b7f45524332303a20617070726f766520746f20746865207a65726f20616464726560008201527f7373000000000000000000000000000000000000000000000000000000000000602082015250565b6000612e7d6022836122fc565b9150612e8882612e21565b604082019050919050565b60006020820190508181036000830152612eac81612e70565b9050919050565b7f45524332303a20696e73756666696369656e7420616c6c6f77616e6365000000600082015250565b6000612ee9601d836122fc565b9150612ef482612eb3565b602082019050919050565b60006020820190508181036000830152612f1881612edc565b9050919050565b7f45524332303a207472616e736665722066726f6d20746865207a65726f20616460008201527f6472657373000000000000000000000000000000000000000000000000000000602082015250565b6000612f7b6025836122fc565b9150612f8682612f1f565b604082019050919050565b60006020820190508181036000830152612faa81612f6e565b9050919050565b7f45524332303a207472616e7366657220746f20746865207a65726f206164647260008201527f6573730000000000000000000000000000000000000000000000000000000000602082015250565b600061300d6023836122fc565b915061301882612fb1565b604082019050919050565b6000602082019050818103600083015261303c81613000565b9050919050565b7f45524332303a207472616e7366657220616d6f756e742065786365656473206260008201527f616c616e63650000000000000000000000000000000000000000000000000000602082015250565b600061309f6026836122fc565b91506130aa82613043565b604082019050919050565b600060208201905081810360008301526130ce81613092565b905091905056fea26469706673582212202e4569e58e4e732bd671983d042027a595b4e79e04bfc8bd170caca1e5a63fc164736f6c63430008110033",
  "linkReferences": {},
  "deployedLinkReferences": {}
}