{
  "_format": "hh-sol-artifact-1",
  "contractName": "safWall",
  "sourceName": "contracts/safWall.sol",
  "abi": [
    {
      "inputs": [
        {
          "internalType": "string",
          "name": "name",
          "type": "string"
        },
        {
          "internalType": "string",
          "name": "symbol",
          "type": "string"
        }
      ],
      "stateMutability": "nonpayable",
      "type": "constructor"
    },
    {
      "anonymous": false,
      "inputs": [
        {
          "indexed": true,
          "internalType": "address",
          "name": "owner",
          "type": "address"
        },
        {
          "indexed": true,
          "internalType": "address",
          "name": "spender",
          "type": "address"
        },
        {
          "indexed": false,
          "internalType": "uint256",
          "name": "value",
          "type": "uint256"
        }
      ],
      "name": "Approval",
      "type": "event"
    },
    {
      "anonymous": false,
      "inputs": [
        {
          "indexed": true,
          "internalType": "address",
          "name": "from",
          "type": "address"
        },
        {
          "indexed": true,
          "internalType": "address",
          "name": "to",
          "type": "address"
        },
        {
          "indexed": false,
          "internalType": "uint256",
          "name": "value",
          "type": "uint256"
        }
      ],
      "name": "Transfer",
      "type": "event"
    },
    {
      "inputs": [
        {
          "internalType": "address",
          "name": "",
          "type": "address"
        }
      ],
      "name": "addressStakeStatus",
      "outputs": [
        {
          "internalType": "bool",
          "name": "",
          "type": "bool"
        }
      ],
      "stateMutability": "view",
      "type": "function"
    },
    {
      "inputs": [
        {
          "internalType": "address",
          "name": "",
          "type": "address"
        }
      ],
      "name": "addressToIndex",
      "outputs": [
        {
          "internalType": "uint256",
          "name": "",
          "type": "uint256"
        }
      ],
      "stateMutability": "view",
      "type": "function"
    },
    {
      "inputs": [],
      "name": "allTokensMinted",
      "outputs": [
        {
          "internalType": "uint256",
          "name": "",
          "type": "uint256"
        }
      ],
      "stateMutability": "view",
      "type": "function"
    },
    {
      "inputs": [
        {
          "internalType": "address",
          "name": "owner",
          "type": "address"
        },
        {
          "internalType": "address",
          "name": "spender",
          "type": "address"
        }
      ],
      "name": "allowance",
      "outputs": [
        {
          "internalType": "uint256",
          "name": "",
          "type": "uint256"
        }
      ],
      "stateMutability": "view",
      "type": "function"
    },
    {
      "inputs": [
        {
          "internalType": "address",
          "name": "spender",
          "type": "address"
        },
        {
          "internalType": "uint256",
          "name": "amount",
          "type": "uint256"
        }
      ],
      "name": "approve",
      "outputs": [
        {
          "internalType": "bool",
          "name": "",
          "type": "bool"
        }
      ],
      "stateMutability": "nonpayable",
      "type": "function"
    },
    {
      "inputs": [
        {
          "internalType": "address",
          "name": "account",
          "type": "address"
        }
      ],
      "name": "balanceOf",
      "outputs": [
        {
          "internalType": "uint256",
          "name": "",
          "type": "uint256"
        }
      ],
      "stateMutability": "view",
      "type": "function"
    },
    {
      "inputs": [
        {
          "internalType": "address",
          "name": "_address",
          "type": "address"
        }
      ],
      "name": "calculateTokenReward",
      "outputs": [
        {
          "internalType": "uint256",
          "name": "",
          "type": "uint256"
        }
      ],
      "stateMutability": "view",
      "type": "function"
    },
    {
      "inputs": [],
      "name": "contractBalance",
      "outputs": [
        {
          "internalType": "uint256",
          "name": "",
          "type": "uint256"
        }
      ],
      "stateMutability": "view",
      "type": "function"
    },
    {
      "inputs": [],
      "name": "decimals",
      "outputs": [
        {
          "internalType": "uint8",
          "name": "",
          "type": "uint8"
        }
      ],
      "stateMutability": "view",
      "type": "function"
    },
    {
      "inputs": [
        {
          "internalType": "address",
          "name": "spender",
          "type": "address"
        },
        {
          "internalType": "uint256",
          "name": "subtractedValue",
          "type": "uint256"
        }
      ],
      "name": "decreaseAllowance",
      "outputs": [
        {
          "internalType": "bool",
          "name": "",
          "type": "bool"
        }
      ],
      "stateMutability": "nonpayable",
      "type": "function"
    },
    {
      "inputs": [],
      "name": "destroyContract",
      "outputs": [],
      "stateMutability": "nonpayable",
      "type": "function"
    },
    {
      "inputs": [
        {
          "internalType": "address",
          "name": "",
          "type": "address"
        }
      ],
      "name": "eligibleAddress",
      "outputs": [
        {
          "internalType": "bool",
          "name": "",
          "type": "bool"
        }
      ],
      "stateMutability": "view",
      "type": "function"
    },
    {
      "inputs": [],
      "name": "getTotalUserStaked",
      "outputs": [
        {
          "internalType": "uint256",
          "name": "",
          "type": "uint256"
        }
      ],
      "stateMutability": "view",
      "type": "function"
    },
    {
      "inputs": [],
      "name": "getTotalUserStakedDetails",
      "outputs": [
        {
          "components": [
            {
              "internalType": "address",
              "name": "user",
              "type": "address"
            },
            {
              "internalType": "uint256",
              "name": "TimeStaked",
              "type": "uint256"
            },
            {
              "internalType": "uint256",
              "name": "TimestakedEnd",
              "type": "uint256"
            },
            {
              "internalType": "uint256",
              "name": "stakedAmount",
              "type": "uint256"
            }
          ],
          "internalType": "struct safWall.stakingDetails[]",
          "name": "",
          "type": "tuple[]"
        }
      ],
      "stateMutability": "view",
      "type": "function"
    },
    {
      "inputs": [],
      "name": "getUserStakedDetails",
      "outputs": [
        {
          "components": [
            {
              "internalType": "address",
              "name": "user",
              "type": "address"
            },
            {
              "internalType": "uint256",
              "name": "TimeStaked",
              "type": "uint256"
            },
            {
              "internalType": "uint256",
              "name": "TimestakedEnd",
              "type": "uint256"
            },
            {
              "internalType": "uint256",
              "name": "stakedAmount",
              "type": "uint256"
            }
          ],
          "internalType": "struct safWall.stakingDetails",
          "name": "",
          "type": "tuple"
        }
      ],
      "stateMutability": "view",
      "type": "function"
    },
    {
      "inputs": [],
      "name": "gettotalEligbles",
      "outputs": [
        {
          "internalType": "uint256",
          "name": "",
          "type": "uint256"
        }
      ],
      "stateMutability": "view",
      "type": "function"
    },
    {
      "inputs": [
        {
          "internalType": "address",
          "name": "spender",
          "type": "address"
        },
        {
          "internalType": "uint256",
          "name": "addedValue",
          "type": "uint256"
        }
      ],
      "name": "increaseAllowance",
      "outputs": [
        {
          "internalType": "bool",
          "name": "",
          "type": "bool"
        }
      ],
      "stateMutability": "nonpayable",
      "type": "function"
    },
    {
      "inputs": [
        {
          "internalType": "address",
          "name": "_address",
          "type": "address"
        }
      ],
      "name": "makeEligible",
      "outputs": [],
      "stateMutability": "nonpayable",
      "type": "function"
    },
    {
      "inputs": [],
      "name": "name",
      "outputs": [
        {
          "internalType": "string",
          "name": "",
          "type": "string"
        }
      ],
      "stateMutability": "view",
      "type": "function"
    },
    {
      "inputs": [],
      "name": "owner",
      "outputs": [
        {
          "internalType": "address",
          "name": "",
          "type": "address"
        }
      ],
      "stateMutability": "view",
      "type": "function"
    },
    {
      "inputs": [
        {
          "internalType": "address",
          "name": "_address",
          "type": "address"
        }
      ],
      "name": "stakedTime",
      "outputs": [
        {
          "internalType": "uint256",
          "name": "",
          "type": "uint256"
        }
      ],
      "stateMutability": "view",
      "type": "function"
    },
    {
      "inputs": [
        {
          "internalType": "address",
          "name": "_address",
          "type": "address"
        }
      ],
      "name": "stakedTimeRemained",
      "outputs": [
        {
          "internalType": "uint256",
          "name": "",
          "type": "uint256"
        }
      ],
      "stateMutability": "view",
      "type": "function"
    },
    {
      "inputs": [
        {
          "internalType": "uint256",
          "name": "",
          "type": "uint256"
        }
      ],
      "name": "stakingAddress",
      "outputs": [
        {
          "internalType": "address",
          "name": "",
          "type": "address"
        }
      ],
      "stateMutability": "view",
      "type": "function"
    },
    {
      "inputs": [
        {
          "internalType": "uint256",
          "name": "time",
          "type": "uint256"
        }
      ],
      "name": "stakingETH",
      "outputs": [],
      "stateMutability": "payable",
      "type": "function"
    },
    {
      "inputs": [],
      "name": "symbol",
      "outputs": [
        {
          "internalType": "string",
          "name": "",
          "type": "string"
        }
      ],
      "stateMutability": "view",
      "type": "function"
    },
    {
      "inputs": [],
      "name": "totalSupply",
      "outputs": [
        {
          "internalType": "uint256",
          "name": "",
          "type": "uint256"
        }
      ],
      "stateMutability": "view",
      "type": "function"
    },
    {
      "inputs": [
        {
          "internalType": "address",
          "name": "to",
          "type": "address"
        },
        {
          "internalType": "uint256",
          "name": "amount",
          "type": "uint256"
        }
      ],
      "name": "transfer",
      "outputs": [
        {
          "internalType": "bool",
          "name": "",
          "type": "bool"
        }
      ],
      "stateMutability": "nonpayable",
      "type": "function"
    },
    {
      "inputs": [
        {
          "internalType": "address",
          "name": "from",
          "type": "address"
        },
        {
          "internalType": "address",
          "name": "to",
          "type": "address"
        },
        {
          "internalType": "uint256",
          "name": "amount",
          "type": "uint256"
        }
      ],
      "name": "transferFrom",
      "outputs": [
        {
          "internalType": "bool",
          "name": "",
          "type": "bool"
        }
      ],
      "stateMutability": "nonpayable",
      "type": "function"
    },
    {
      "inputs": [],
      "name": "unstakeETH",
      "outputs": [
        {
          "internalType": "uint256",
          "name": "",
          "type": "uint256"
        }
      ],
      "stateMutability": "payable",
      "type": "function"
    },
    {
      "stateMutability": "payable",
      "type": "receive"
    }
  ],
  "bytecode": "0x6080604052600a600c55670de0b6b3a7640000600d5562093a80600e553480156200002957600080fd5b5060405162003c2638038062003c2683398181016040528101906200004f919062000534565b8181816003908162000062919062000804565b50806004908162000074919062000804565b50505033600560006101000a81548173ffffffffffffffffffffffffffffffffffffffff021916908373ffffffffffffffffffffffffffffffffffffffff160217905550600a600560009054906101000a900473ffffffffffffffffffffffffffffffffffffffff169080600181540180825580915050600190039060005260206000200160009091909190916101000a81548173ffffffffffffffffffffffffffffffffffffffff021916908373ffffffffffffffffffffffffffffffffffffffff1602179055506200017462989680600560009054906101000a900473ffffffffffffffffffffffffffffffffffffffff166200017c60201b60201c565b505062000a78565b600560009054906101000a900473ffffffffffffffffffffffffffffffffffffffff1673ffffffffffffffffffffffffffffffffffffffff163373ffffffffffffffffffffffffffffffffffffffff16146200020f576040517f08c379a000000000000000000000000000000000000000000000000000000000815260040162000206906200094c565b60405180910390fd5b6200022681836200022a60201b6200185f1760201c565b5050565b600073ffffffffffffffffffffffffffffffffffffffff168273ffffffffffffffffffffffffffffffffffffffff16036200029c576040517f08c379a00000000000000000000000000000000000000000000000000000000081526004016200029390620009be565b60405180910390fd5b620002b0600083836200039760201b60201c565b8060026000828254620002c4919062000a0f565b92505081905550806000808473ffffffffffffffffffffffffffffffffffffffff1673ffffffffffffffffffffffffffffffffffffffff168152602001908152602001600020600082825401925050819055508173ffffffffffffffffffffffffffffffffffffffff16600073ffffffffffffffffffffffffffffffffffffffff167fddf252ad1be2c89b69c2b068fc378daa952ba7f163c4a11628f55a4df523b3ef8360405162000377919062000a5b565b60405180910390a362000393600083836200039c60201b60201c565b5050565b505050565b505050565b6000604051905090565b600080fd5b600080fd5b600080fd5b600080fd5b6000601f19601f8301169050919050565b7f4e487b7100000000000000000000000000000000000000000000000000000000600052604160045260246000fd5b6200040a82620003bf565b810181811067ffffffffffffffff821117156200042c576200042b620003d0565b5b80604052505050565b600062000441620003a1565b90506200044f8282620003ff565b919050565b600067ffffffffffffffff821115620004725762000471620003d0565b5b6200047d82620003bf565b9050602081019050919050565b60005b83811015620004aa5780820151818401526020810190506200048d565b60008484015250505050565b6000620004cd620004c78462000454565b62000435565b905082815260208101848484011115620004ec57620004eb620003ba565b5b620004f98482856200048a565b509392505050565b600082601f830112620005195762000518620003b5565b5b81516200052b848260208601620004b6565b91505092915050565b600080604083850312156200054e576200054d620003ab565b5b600083015167ffffffffffffffff8111156200056f576200056e620003b0565b5b6200057d8582860162000501565b925050602083015167ffffffffffffffff811115620005a157620005a0620003b0565b5b620005af8582860162000501565b9150509250929050565b600081519050919050565b7f4e487b7100000000000000000000000000000000000000000000000000000000600052602260045260246000fd5b600060028204905060018216806200060c57607f821691505b602082108103620006225762000621620005c4565b5b50919050565b60008190508160005260206000209050919050565b60006020601f8301049050919050565b600082821b905092915050565b6000600883026200068c7fffffffffffffffffffffffffffffffffffffffffffffffffffffffffffffffff826200064d565b6200069886836200064d565b95508019841693508086168417925050509392505050565b6000819050919050565b6000819050919050565b6000620006e5620006df620006d984620006b0565b620006ba565b620006b0565b9050919050565b6000819050919050565b6200070183620006c4565b620007196200071082620006ec565b8484546200065a565b825550505050565b600090565b6200073062000721565b6200073d818484620006f6565b505050565b5b8181101562000765576200075960008262000726565b60018101905062000743565b5050565b601f821115620007b4576200077e8162000628565b62000789846200063d565b8101602085101562000799578190505b620007b1620007a8856200063d565b83018262000742565b50505b505050565b600082821c905092915050565b6000620007d960001984600802620007b9565b1980831691505092915050565b6000620007f48383620007c6565b9150826002028217905092915050565b6200080f82620005b9565b67ffffffffffffffff8111156200082b576200082a620003d0565b5b620008378254620005f3565b6200084482828562000769565b600060209050601f8311600181146200087c576000841562000867578287015190505b620008738582620007e6565b865550620008e3565b601f1984166200088c8662000628565b60005b82811015620008b6578489015182556001820191506020850194506020810190506200088f565b86831015620008d65784890151620008d2601f891682620007c6565b8355505b6001600288020188555050505b505050505050565b600082825260208201905092915050565b7f6f6e6c79206f776e657220697320616c6c6f7765640000000000000000000000600082015250565b600062000934601583620008eb565b91506200094182620008fc565b602082019050919050565b60006020820190508181036000830152620009678162000925565b9050919050565b7f45524332303a206d696e7420746f20746865207a65726f206164647265737300600082015250565b6000620009a6601f83620008eb565b9150620009b3826200096e565b602082019050919050565b60006020820190508181036000830152620009d98162000997565b9050919050565b7f4e487b7100000000000000000000000000000000000000000000000000000000600052601160045260246000fd5b600062000a1c82620006b0565b915062000a2983620006b0565b925082820190508082111562000a445762000a43620009e0565b5b92915050565b62000a5581620006b0565b82525050565b600060208201905062000a72600083018462000a4a565b92915050565b61319e8062000a886000396000f3fe6080604052600436106101c65760003560e01c806386756383116100f7578063a857705911610095578063dd62ed3e11610064578063dd62ed3e14610699578063de8da614146106d6578063f11b54a614610713578063f667e0aa1461073e576101cd565b8063a8577059146105d6578063a9059cbb146105f4578063b41b071914610631578063cec935331461065c576101cd565b80638da5cb5b116100d15780638da5cb5b1461051857806395d89b4114610543578063961b294a1461056e578063a457c2d714610599576101cd565b806386756383146104875780638a73f0b2146104b05780638b7afe2e146104ed576101cd565b806323b872dd11610164578063395093511161013e57806339509351146103a557806351c86783146103e257806370a082311461041f578063832bc8b01461045c576101cd565b806323b872dd1461030057806328665a651461033d578063313ce5671461037a576101cd565b8063092a5cce116101a0578063092a5cce14610265578063095ea7b31461027c5780630e4f2cdb146102b957806318160ddd146102d5576101cd565b806306709555146101d257806306fdde031461020f578063078f34df1461023a576101cd565b366101cd57005b600080fd5b3480156101de57600080fd5b506101f960048036038101906101f49190612323565b61077b565b6040516102069190612369565b60405180910390f35b34801561021b57600080fd5b50610224610889565b6040516102319190612414565b60405180910390f35b34801561024657600080fd5b5061024f61091b565b60405161025c9190612558565b60405180910390f35b34801561027157600080fd5b5061027a6109ee565b005b34801561028857600080fd5b506102a3600480360381019061029e91906125a6565b610ab9565b6040516102b09190612601565b60405180910390f35b6102d360048036038101906102ce919061261c565b610adc565b005b3480156102e157600080fd5b506102ea610e19565b6040516102f79190612369565b60405180910390f35b34801561030c57600080fd5b5061032760048036038101906103229190612649565b610e23565b6040516103349190612601565b60405180910390f35b34801561034957600080fd5b50610364600480360381019061035f9190612323565b610e52565b6040516103719190612369565b60405180910390f35b34801561038657600080fd5b5061038f610e7b565b60405161039c91906126b8565b60405180910390f35b3480156103b157600080fd5b506103cc60048036038101906103c791906125a6565b610e84565b6040516103d99190612601565b60405180910390f35b3480156103ee57600080fd5b5061040960048036038101906104049190612323565b610ebb565b6040516104169190612601565b60405180910390f35b34801561042b57600080fd5b5061044660048036038101906104419190612323565b610edb565b6040516104539190612369565b60405180910390f35b34801561046857600080fd5b50610471610f23565b60405161047e9190612369565b60405180910390f35b34801561049357600080fd5b506104ae60048036038101906104a99190612323565b610f30565b005b3480156104bc57600080fd5b506104d760048036038101906104d2919061261c565b611151565b6040516104e491906126e2565b60405180910390f35b3480156104f957600080fd5b50610502611190565b60405161050f9190612369565b60405180910390f35b34801561052457600080fd5b5061052d611198565b60405161053a91906126e2565b60405180910390f35b34801561054f57600080fd5b506105586111be565b6040516105659190612414565b60405180910390f35b34801561057a57600080fd5b50610583611250565b6040516105909190612369565b60405180910390f35b3480156105a557600080fd5b506105c060048036038101906105bb91906125a6565b61125f565b6040516105cd9190612601565b60405180910390f35b6105de6112d6565b6040516105eb9190612369565b60405180910390f35b34801561060057600080fd5b5061061b600480360381019061061691906125a6565b61144f565b6040516106289190612601565b60405180910390f35b34801561063d57600080fd5b50610646611472565b6040516106539190612752565b60405180910390f35b34801561066857600080fd5b50610683600480360381019061067e9190612323565b6115f1565b6040516106909190612601565b60405180910390f35b3480156106a557600080fd5b506106c060048036038101906106bb919061276d565b611611565b6040516106cd9190612369565b60405180910390f35b3480156106e257600080fd5b506106fd60048036038101906106f89190612323565b611698565b60405161070a9190612369565b60405180910390f35b34801561071f57600080fd5b5061072861183a565b6040516107359190612369565b60405180910390f35b34801561074a57600080fd5b5061076560048036038101906107609190612323565b611847565b6040516107729190612369565b60405180910390f35b600080600960008473ffffffffffffffffffffffffffffffffffffffff1673ffffffffffffffffffffffffffffffffffffffff1681526020019081526020016000205490506000600b82815481106107d6576107d56127ad565b5b906000526020600020906004020160010154600b83815481106107fc576107fb6127ad565b5b906000526020600020906004020160020154610818919061280b565b905061086e600b8381548110610831576108306127ad565b5b906000526020600020906004020160020154600b8481548110610857576108566127ad565b5b9060005260206000209060040201600101546119b5565b620151808161087d919061286e565b90508092505050919050565b606060038054610898906128ce565b80601f01602080910402602001604051908101604052809291908181526020018280546108c4906128ce565b80156109115780601f106108e657610100808354040283529160200191610911565b820191906000526020600020905b8154815290600101906020018083116108f457829003601f168201915b5050505050905090565b6060600b805480602002602001604051908101604052809291908181526020016000905b828210156109e557838290600052602060002090600402016040518060800160405290816000820160009054906101000a900473ffffffffffffffffffffffffffffffffffffffff1673ffffffffffffffffffffffffffffffffffffffff1673ffffffffffffffffffffffffffffffffffffffff16815260200160018201548152602001600282015481526020016003820154815250508152602001906001019061093f565b50505050905090565b600560009054906101000a900473ffffffffffffffffffffffffffffffffffffffff1673ffffffffffffffffffffffffffffffffffffffff163373ffffffffffffffffffffffffffffffffffffffff1614610a7e576040517f08c379a0000000000000000000000000000000000000000000000000000000008152600401610a759061294b565b60405180910390fd5b600560009054906101000a900473ffffffffffffffffffffffffffffffffffffffff1673ffffffffffffffffffffffffffffffffffffffff16ff5b600080610ac4611a51565b9050610ad1818585611a59565b600191505092915050565b600081905060011515600660003373ffffffffffffffffffffffffffffffffffffffff1673ffffffffffffffffffffffffffffffffffffffff16815260200190815260200160002060009054906101000a900460ff16151514610b74576040517f08c379a0000000000000000000000000000000000000000000000000000000008152600401610b6b906129dd565b60405180910390fd5b60001515600860003373ffffffffffffffffffffffffffffffffffffffff1673ffffffffffffffffffffffffffffffffffffffff16815260200190815260200160002060009054906101000a900460ff16151514610c07576040517f08c379a0000000000000000000000000000000000000000000000000000000008152600401610bfe90612a49565b60405180910390fd5b670de0b6b3a7640000341015610c52576040517f08c379a0000000000000000000000000000000000000000000000000000000008152600401610c4990612ab5565b60405180910390fd5b62093a80811015610c98576040517f08c379a0000000000000000000000000000000000000000000000000000000008152600401610c8f90612b21565b60405180910390fd5b6001600860003373ffffffffffffffffffffffffffffffffffffffff1673ffffffffffffffffffffffffffffffffffffffff16815260200190815260200160002060006101000a81548160ff021916908315150217905550600060405180608001604052803373ffffffffffffffffffffffffffffffffffffffff1681526020014281526020018342610d2b9190612b41565b8152602001348152509050610d3e61183a565b600960003373ffffffffffffffffffffffffffffffffffffffff1673ffffffffffffffffffffffffffffffffffffffff16815260200190815260200160002081905550600b81908060018154018082558091505060019003906000526020600020906004020160009091909190915060008201518160000160006101000a81548173ffffffffffffffffffffffffffffffffffffffff021916908373ffffffffffffffffffffffffffffffffffffffff1602179055506020820151816001015560408201518160020155606082015181600301555050505050565b6000600254905090565b600080610e2e611a51565b9050610e3b858285611c22565b610e46858585611cae565b60019150509392505050565b600080610e5e8361077b565b90506000600582610e6f9190612b75565b90508092505050919050565b60006012905090565b600080610e8f611a51565b9050610eb0818585610ea18589611611565b610eab9190612b41565b611a59565b600191505092915050565b60086020528060005260406000206000915054906101000a900460ff1681565b60008060008373ffffffffffffffffffffffffffffffffffffffff1673ffffffffffffffffffffffffffffffffffffffff168152602001908152602001600020549050919050565b6000600a80549050905090565b600560009054906101000a900473ffffffffffffffffffffffffffffffffffffffff1673ffffffffffffffffffffffffffffffffffffffff163373ffffffffffffffffffffffffffffffffffffffff1614610fc0576040517f08c379a0000000000000000000000000000000000000000000000000000000008152600401610fb79061294b565b60405180910390fd5b60001515600660008373ffffffffffffffffffffffffffffffffffffffff1673ffffffffffffffffffffffffffffffffffffffff16815260200190815260200160002060009054906101000a900460ff16151514611053576040517f08c379a000000000000000000000000000000000000000000000000000000000815260040161104a906129dd565b60405180910390fd5b6001600660008373ffffffffffffffffffffffffffffffffffffffff1673ffffffffffffffffffffffffffffffffffffffff16815260200190815260200160002060006101000a81548160ff021916908315150217905550600760008273ffffffffffffffffffffffffffffffffffffffff1673ffffffffffffffffffffffffffffffffffffffff16815260200190815260200160002050600a819080600181540180825580915050600190039060005260206000200160009091909190916101000a81548173ffffffffffffffffffffffffffffffffffffffff021916908373ffffffffffffffffffffffffffffffffffffffff16021790555050565b600a818154811061116157600080fd5b906000526020600020016000915054906101000a900473ffffffffffffffffffffffffffffffffffffffff1681565b600047905090565b600560009054906101000a900473ffffffffffffffffffffffffffffffffffffffff1681565b6060600480546111cd906128ce565b80601f01602080910402602001604051908101604052809291908181526020018280546111f9906128ce565b80156112465780601f1061121b57610100808354040283529160200191611246565b820191906000526020600020905b81548152906001019060200180831161122957829003601f168201915b5050505050905090565b600061125a610e19565b905090565b60008061126a611a51565b905060006112788286611611565b9050838110156112bd576040517f08c379a00000000000000000000000000000000000000000000000000000000081526004016112b490612c29565b60405180910390fd5b6112ca8286868403611a59565b60019250505092915050565b600080600960003373ffffffffffffffffffffffffffffffffffffffff1673ffffffffffffffffffffffffffffffffffffffff168152602001908152602001600020549050600b818154811061132f5761132e6127ad565b5b906000526020600020906004020160020154421015611383576040517f08c379a000000000000000000000000000000000000000000000000000000000815260040161137a90612c95565b60405180910390fd5b600061138d61183a565b90506000600b83815481106113a5576113a46127ad565b5b906000526020600020906004020160030154905060006113c433610e52565b90506113d1338585611f24565b3373ffffffffffffffffffffffffffffffffffffffff166108fc839081150290604051600060405180830381858888f19350505050158015611417573d6000803e3d6000fd5b50611445600560009054906101000a900473ffffffffffffffffffffffffffffffffffffffff163383611cae565b8094505050505090565b60008061145a611a51565b9050611467818585611cae565b600191505092915050565b61147a612282565b600860003373ffffffffffffffffffffffffffffffffffffffff1673ffffffffffffffffffffffffffffffffffffffff16815260200190815260200160002060009054906101000a900460ff16611506576040517f08c379a00000000000000000000000000000000000000000000000000000000081526004016114fd90612d01565b60405180910390fd5b6000600960003373ffffffffffffffffffffffffffffffffffffffff1673ffffffffffffffffffffffffffffffffffffffff168152602001908152602001600020549050600b818154811061155e5761155d6127ad565b5b90600052602060002090600402016040518060800160405290816000820160009054906101000a900473ffffffffffffffffffffffffffffffffffffffff1673ffffffffffffffffffffffffffffffffffffffff1673ffffffffffffffffffffffffffffffffffffffff168152602001600182015481526020016002820154815260200160038201548152505091505090565b60066020528060005260406000206000915054906101000a900460ff1681565b6000600160008473ffffffffffffffffffffffffffffffffffffffff1673ffffffffffffffffffffffffffffffffffffffff16815260200190815260200160002060008373ffffffffffffffffffffffffffffffffffffffff1673ffffffffffffffffffffffffffffffffffffffff16815260200190815260200160002054905092915050565b600060011515600860008473ffffffffffffffffffffffffffffffffffffffff1673ffffffffffffffffffffffffffffffffffffffff16815260200190815260200160002060009054906101000a900460ff1615151461172d576040517f08c379a000000000000000000000000000000000000000000000000000000000815260040161172490612d6d565b60405180910390fd5b6000600960008473ffffffffffffffffffffffffffffffffffffffff1673ffffffffffffffffffffffffffffffffffffffff1681526020019081526020016000205490506000600b8281548110611787576117866127ad565b5b906000526020600020906004020160010154600b83815481106117ad576117ac6127ad565b5b9060005260206000209060040201600201546117c9919061280b565b905061181f600b83815481106117e2576117e16127ad565b5b906000526020600020906004020160020154600b8481548110611808576118076127ad565b5b9060005260206000209060040201600101546119b5565b620151808161182e919061286e565b90508092505050919050565b6000600b80549050905090565b60076020528060005260406000206000915090505481565b600073ffffffffffffffffffffffffffffffffffffffff168273ffffffffffffffffffffffffffffffffffffffff16036118ce576040517f08c379a00000000000000000000000000000000000000000000000000000000081526004016118c590612dd9565b60405180910390fd5b6118da6000838361224f565b80600260008282546118ec9190612b41565b92505081905550806000808473ffffffffffffffffffffffffffffffffffffffff1673ffffffffffffffffffffffffffffffffffffffff168152602001908152602001600020600082825401925050819055508173ffffffffffffffffffffffffffffffffffffffff16600073ffffffffffffffffffffffffffffffffffffffff167fddf252ad1be2c89b69c2b068fc378daa952ba7f163c4a11628f55a4df523b3ef8360405161199d9190612369565b60405180910390a36119b160008383612254565b5050565b611a4d82826040516024016119cb929190612df9565b6040516020818303038152906040527ff666715a000000000000000000000000000000000000000000000000000000007bffffffffffffffffffffffffffffffffffffffffffffffffffffffff19166020820180517bffffffffffffffffffffffffffffffffffffffffffffffffffffffff8381831617835250505050612259565b5050565b600033905090565b600073ffffffffffffffffffffffffffffffffffffffff168373ffffffffffffffffffffffffffffffffffffffff1603611ac8576040517f08c379a0000000000000000000000000000000000000000000000000000000008152600401611abf90612e94565b60405180910390fd5b600073ffffffffffffffffffffffffffffffffffffffff168273ffffffffffffffffffffffffffffffffffffffff1603611b37576040517f08c379a0000000000000000000000000000000000000000000000000000000008152600401611b2e90612f26565b60405180910390fd5b80600160008573ffffffffffffffffffffffffffffffffffffffff1673ffffffffffffffffffffffffffffffffffffffff16815260200190815260200160002060008473ffffffffffffffffffffffffffffffffffffffff1673ffffffffffffffffffffffffffffffffffffffff168152602001908152602001600020819055508173ffffffffffffffffffffffffffffffffffffffff168373ffffffffffffffffffffffffffffffffffffffff167f8c5be1e5ebec7d5bd14f71427d1e84f3dd0314c0f7b2291e5b200ac8c7c3b92583604051611c159190612369565b60405180910390a3505050565b6000611c2e8484611611565b90507fffffffffffffffffffffffffffffffffffffffffffffffffffffffffffffffff8114611ca85781811015611c9a576040517f08c379a0000000000000000000000000000000000000000000000000000000008152600401611c9190612f92565b60405180910390fd5b611ca78484848403611a59565b5b50505050565b600073ffffffffffffffffffffffffffffffffffffffff168373ffffffffffffffffffffffffffffffffffffffff1603611d1d576040517f08c379a0000000000000000000000000000000000000000000000000000000008152600401611d1490613024565b60405180910390fd5b600073ffffffffffffffffffffffffffffffffffffffff168273ffffffffffffffffffffffffffffffffffffffff1603611d8c576040517f08c379a0000000000000000000000000000000000000000000000000000000008152600401611d83906130b6565b60405180910390fd5b611d9783838361224f565b60008060008573ffffffffffffffffffffffffffffffffffffffff1673ffffffffffffffffffffffffffffffffffffffff16815260200190815260200160002054905081811015611e1d576040517f08c379a0000000000000000000000000000000000000000000000000000000008152600401611e1490613148565b60405180910390fd5b8181036000808673ffffffffffffffffffffffffffffffffffffffff1673ffffffffffffffffffffffffffffffffffffffff16815260200190815260200160002081905550816000808573ffffffffffffffffffffffffffffffffffffffff1673ffffffffffffffffffffffffffffffffffffffff168152602001908152602001600020600082825401925050819055508273ffffffffffffffffffffffffffffffffffffffff168473ffffffffffffffffffffffffffffffffffffffff167fddf252ad1be2c89b69c2b068fc378daa952ba7f163c4a11628f55a4df523b3ef84604051611f0b9190612369565b60405180910390a3611f1e848484612254565b50505050565b600181611f31919061280b565b820361203b576000600860008573ffffffffffffffffffffffffffffffffffffffff1673ffffffffffffffffffffffffffffffffffffffff16815260200190815260200160002060006101000a81548160ff021916908315150217905550600960008473ffffffffffffffffffffffffffffffffffffffff1673ffffffffffffffffffffffffffffffffffffffff16815260200190815260200160002060009055600b8281548110611fe657611fe56127ad565b5b9060005260206000209060040201600080820160006101000a81549073ffffffffffffffffffffffffffffffffffffffff0219169055600182016000905560028201600090556003820160009055505061224a565b6000600860008573ffffffffffffffffffffffffffffffffffffffff1673ffffffffffffffffffffffffffffffffffffffff16815260200190815260200160002060006101000a81548160ff021916908315150217905550600b6001826120a2919061280b565b815481106120b3576120b26127ad565b5b9060005260206000209060040201600b83815481106120d5576120d46127ad565b5b90600052602060002090600402016000820160009054906101000a900473ffffffffffffffffffffffffffffffffffffffff168160000160006101000a81548173ffffffffffffffffffffffffffffffffffffffff021916908373ffffffffffffffffffffffffffffffffffffffff160217905550600182015481600101556002820154816002015560038201548160030155905050600960008473ffffffffffffffffffffffffffffffffffffffff1673ffffffffffffffffffffffffffffffffffffffff168152602001908152602001600020600090556000600b6001836121bf919061280b565b815481106121d0576121cf6127ad565b5b906000526020600020906004020160000160009054906101000a900473ffffffffffffffffffffffffffffffffffffffff16905082600960008373ffffffffffffffffffffffffffffffffffffffff1673ffffffffffffffffffffffffffffffffffffffff16815260200190815260200160002081905550505b505050565b505050565b505050565b60008151905060006a636f6e736f6c652e6c6f679050602083016000808483855afa5050505050565b6040518060800160405280600073ffffffffffffffffffffffffffffffffffffffff1681526020016000815260200160008152602001600081525090565b600080fd5b600073ffffffffffffffffffffffffffffffffffffffff82169050919050565b60006122f0826122c5565b9050919050565b612300816122e5565b811461230b57600080fd5b50565b60008135905061231d816122f7565b92915050565b600060208284031215612339576123386122c0565b5b60006123478482850161230e565b91505092915050565b6000819050919050565b61236381612350565b82525050565b600060208201905061237e600083018461235a565b92915050565b600081519050919050565b600082825260208201905092915050565b60005b838110156123be5780820151818401526020810190506123a3565b60008484015250505050565b6000601f19601f8301169050919050565b60006123e682612384565b6123f0818561238f565b93506124008185602086016123a0565b612409816123ca565b840191505092915050565b6000602082019050818103600083015261242e81846123db565b905092915050565b600081519050919050565b600082825260208201905092915050565b6000819050602082019050919050565b61246b816122e5565b82525050565b61247a81612350565b82525050565b6080820160008201516124966000850182612462565b5060208201516124a96020850182612471565b5060408201516124bc6040850182612471565b5060608201516124cf6060850182612471565b50505050565b60006124e18383612480565b60808301905092915050565b6000602082019050919050565b600061250582612436565b61250f8185612441565b935061251a83612452565b8060005b8381101561254b57815161253288826124d5565b975061253d836124ed565b92505060018101905061251e565b5085935050505092915050565b6000602082019050818103600083015261257281846124fa565b905092915050565b61258381612350565b811461258e57600080fd5b50565b6000813590506125a08161257a565b92915050565b600080604083850312156125bd576125bc6122c0565b5b60006125cb8582860161230e565b92505060206125dc85828601612591565b9150509250929050565b60008115159050919050565b6125fb816125e6565b82525050565b600060208201905061261660008301846125f2565b92915050565b600060208284031215612632576126316122c0565b5b600061264084828501612591565b91505092915050565b600080600060608486031215612662576126616122c0565b5b60006126708682870161230e565b93505060206126818682870161230e565b925050604061269286828701612591565b9150509250925092565b600060ff82169050919050565b6126b28161269c565b82525050565b60006020820190506126cd60008301846126a9565b92915050565b6126dc816122e5565b82525050565b60006020820190506126f760008301846126d3565b92915050565b6080820160008201516127136000850182612462565b5060208201516127266020850182612471565b5060408201516127396040850182612471565b50606082015161274c6060850182612471565b50505050565b600060808201905061276760008301846126fd565b92915050565b60008060408385031215612784576127836122c0565b5b60006127928582860161230e565b92505060206127a38582860161230e565b9150509250929050565b7f4e487b7100000000000000000000000000000000000000000000000000000000600052603260045260246000fd5b7f4e487b7100000000000000000000000000000000000000000000000000000000600052601160045260246000fd5b600061281682612350565b915061282183612350565b9250828203905081811115612839576128386127dc565b5b92915050565b7f4e487b7100000000000000000000000000000000000000000000000000000000600052601260045260246000fd5b600061287982612350565b915061288483612350565b9250826128945761289361283f565b5b828204905092915050565b7f4e487b7100000000000000000000000000000000000000000000000000000000600052602260045260246000fd5b600060028204905060018216806128e657607f821691505b6020821081036128f9576128f861289f565b5b50919050565b7f6f6e6c79206f776e657220697320616c6c6f7765640000000000000000000000600082015250565b600061293560158361238f565b9150612940826128ff565b602082019050919050565b6000602082019050818103600083015261296481612928565b9050919050565b7f796f757220656c696769626c65206e6f206e65656420666f722070726f63656460008201527f7572650000000000000000000000000000000000000000000000000000000000602082015250565b60006129c760238361238f565b91506129d28261296b565b604082019050919050565b600060208201905081810360008301526129f6816129ba565b9050919050565b7f796f757220617265207374696c6c205374616b696e6700000000000000000000600082015250565b6000612a3360168361238f565b9150612a3e826129fd565b602082019050919050565b60006020820190508181036000830152612a6281612a26565b9050919050565b7f6e6f742073756666696369656e742066756e6400000000000000000000000000600082015250565b6000612a9f60138361238f565b9150612aaa82612a69565b602082019050919050565b60006020820190508181036000830152612ace81612a92565b9050919050565b7f7374616b696e6720706572696f642020697320746f6f2073686f727400000000600082015250565b6000612b0b601c8361238f565b9150612b1682612ad5565b602082019050919050565b60006020820190508181036000830152612b3a81612afe565b9050919050565b6000612b4c82612350565b9150612b5783612350565b9250828201905080821115612b6f57612b6e6127dc565b5b92915050565b6000612b8082612350565b9150612b8b83612350565b9250828202612b9981612350565b91508282048414831517612bb057612baf6127dc565b5b5092915050565b7f45524332303a2064656372656173656420616c6c6f77616e63652062656c6f7760008201527f207a65726f000000000000000000000000000000000000000000000000000000602082015250565b6000612c1360258361238f565b9150612c1e82612bb7565b604082019050919050565b60006020820190508181036000830152612c4281612c06565b9050919050565b7f7374616b696e6720706572696f64206973206e6f742066696e69736865640000600082015250565b6000612c7f601e8361238f565b9150612c8a82612c49565b602082019050919050565b60006020820190508181036000830152612cae81612c72565b9050919050565b7f6e6f207374616b696e6720666f756e6400000000000000000000000000000000600082015250565b6000612ceb60108361238f565b9150612cf682612cb5565b602082019050919050565b60006020820190508181036000830152612d1a81612cde565b9050919050565b7f6e6f2066756e6473207374616b65640000000000000000000000000000000000600082015250565b6000612d57600f8361238f565b9150612d6282612d21565b602082019050919050565b60006020820190508181036000830152612d8681612d4a565b9050919050565b7f45524332303a206d696e7420746f20746865207a65726f206164647265737300600082015250565b6000612dc3601f8361238f565b9150612dce82612d8d565b602082019050919050565b60006020820190508181036000830152612df281612db6565b9050919050565b6000604082019050612e0e600083018561235a565b612e1b602083018461235a565b9392505050565b7f45524332303a20617070726f76652066726f6d20746865207a65726f2061646460008201527f7265737300000000000000000000000000000000000000000000000000000000602082015250565b6000612e7e60248361238f565b9150612e8982612e22565b604082019050919050565b60006020820190508181036000830152612ead81612e71565b9050919050565b7f45524332303a20617070726f766520746f20746865207a65726f20616464726560008201527f7373000000000000000000000000000000000000000000000000000000000000602082015250565b6000612f1060228361238f565b9150612f1b82612eb4565b604082019050919050565b60006020820190508181036000830152612f3f81612f03565b9050919050565b7f45524332303a20696e73756666696369656e7420616c6c6f77616e6365000000600082015250565b6000612f7c601d8361238f565b9150612f8782612f46565b602082019050919050565b60006020820190508181036000830152612fab81612f6f565b9050919050565b7f45524332303a207472616e736665722066726f6d20746865207a65726f20616460008201527f6472657373000000000000000000000000000000000000000000000000000000602082015250565b600061300e60258361238f565b915061301982612fb2565b604082019050919050565b6000602082019050818103600083015261303d81613001565b9050919050565b7f45524332303a207472616e7366657220746f20746865207a65726f206164647260008201527f6573730000000000000000000000000000000000000000000000000000000000602082015250565b60006130a060238361238f565b91506130ab82613044565b604082019050919050565b600060208201905081810360008301526130cf81613093565b9050919050565b7f45524332303a207472616e7366657220616d6f756e742065786365656473206260008201527f616c616e63650000000000000000000000000000000000000000000000000000602082015250565b600061313260268361238f565b915061313d826130d6565b604082019050919050565b6000602082019050818103600083015261316181613125565b905091905056fea26469706673582212208f1e30be8b643ec28e94532156e5e749b6852891e287536199819b03ac5f511664736f6c63430008110033",
  "linkReferences": {},
  "deployedLinkReferences": {}
}